S0110000415453414D5F4F54412E737265635A
S214400000700800203D0140003901400039014000A1
S214400010390140003901400039014000000000002D
S2144000200000000000000000000000003901400011
S214400030390140000000000039014000390140000D
S2144000403901400039014000390140003901400083
S2144000503901400039014000390140003901400073
S21440006039014000390140000000000039014000DD
S2144000703901400039014000390140003901400053
S2144000800000000000000000390140003901400037
S2144000903901400039014000390140003901400033
S2144000A03901400039014000390140003901400023
S2144000B03901400039014000390140003901400013
S2144000C039014000390140003901400010B5054C67
S2144000D0237833B9044B13B10448AFF300800123AF
S2144000E0237010BD2C040020000000005C0340007C
S2144000F00C4B43B10C480D4910B5AFF300800C488B
S214400100036823B910BD0A48036833B97047094BE2
S214400110002BF7D0BDE810401847064B002BF5D013
S214400120184700BF000000005C0340003004002079
S2144001305C03400000000000FEE7000008B5104BDE
S214400140104A9A4209D00E4B0E4A03E011681960D5
S214400150043304320C498B42F8D30C4B02E00022A5
S2144001601A6004330A4A9342F9D30A4A0A4B23F0E8
S2144001707F039360094B9847094B9847FEE700BFBB
S214400180000000205C0340002C0400202C040020CB
S2144001906C04002000ED00E000004000C501400077
S2144001A0B90140004FF48073024A136002F50072B2
S2144001B013607047000A0E4008B5014B9847FEE7AB
S2144001C0A501400070B50F4E0F4D761BB61018BFF8
S2144001D0002405D0013455F8043B9847A642F9D18F
S2144001E00A4E0B4D761B00F0A7F8B61018BF002439
S2144001F006D0013455F8043B9847A642F9D170BD65
S21440020070BD00BF44034000440340004C03400020
S21440021044034000024B13B1024800F005B8704753
S2144002200000000035024000002301461A461846EA
S21440023000F01EB838B50A4C0A4D641BA4100AD00C
S21440024004F18043013B05EB8305013C55F8043936
S2144002509847002CF9D1BDE8384000F077B800BF89
S2144002605C03400058034000704700BF704700BF23
S2144002702DE9F8432C4D0646286898460F46914689
S214400280FFF7F2FF294B1C68D4F84831002B3ED0CC
S2144002905A681F2A1CDC02F1010E76B103EB82017C
S2144002A00124C1F88890D3F8880194402043022E58
S2144002B0C3F88801C1F8088123D00232C3F804E0AD
S2144002C0286843F82270FFF7D1FF0020BDE8F88386
S2144002D0174B0BB34FF4C870AFF300800346D8B14A
S2144002E0D4F848210260002141600A46C4F848011B
S2144002F04FF0010EC0F88811C0F88C11002EDCD0EB
S214400300CCE7D3F88C110C43C3F88C41D5E704F501
S214400310A673C4F84831BBE72868FFF7A7FF4FF03D
S214400320FF30BDE8F88300BF2804002034034000B7
S2144003300000000000000020F8B500BFF8BC08BC74
S2144003409E46704715024000F1004000F8B500BFD9
S210400350F8BC08BC9E467047CD0040003C
S21440035C00000000EC02002054030020BC030020E8
S21440036C000000000000000000000000000000003C
S21440037C000000000000000000000000000000002C
S21440038C000000000000000000000000000000001C
S21440039C000000000000000000000000000000000C
S2144003AC00000000000000000000000000000000FC
S2144003BC00000000000000000000000000000000EC
S2144003CC00000000000000000000000000000000DC
S2144003DC00000000000000000000000000000000CC
S2144003EC00000000000000000000000000000000BC
S2144003FC00000000000000000100000000000000AB
S21440040C0E33CDAB34126DE6ECDE05000B0000006F
S21440041C000000000000000000000000000000008B
S21440042C000000000000000000000000000000007B
S21440043C000000000000000000000000000000006B
S21440044C000000000000000000000000000000005B
S21040077C000000000000000048040020C0
S804400000BB
